{
	"data": {
		"bytecode": {
			"linkReferences": {},
			"object": "6103fc61004d600b8282823980515f1a6073146041577f4e487b71000000000000000000000000000000000000000000000000000000005f525f60045260245ffd5b305f52607381538281f3fe730000000000000000000000000000000000000000301460806040526004361061003f575f3560e01c80630d8e6e2c1461004357806398d5fdca14610061575b5f5ffd5b61004b61007f565b60405161005891906101c8565b60405180910390f35b61006961010b565b60405161007691906101c8565b60405180910390f35b5f5f73694aa1769357215de4fac081bf1f309adc32530690508073ffffffffffffffffffffffffffffffffffffffff166354fd4d506040518163ffffffff1660e01b8152600401602060405180830381865afa1580156100e1573d5f5f3e3d5ffd5b505050506040513d601f19601f82011682018060405250810190610105919061020f565b91505090565b5f5f73694aa1769357215de4fac081bf1f309adc32530690505f8173ffffffffffffffffffffffffffffffffffffffff1663feaf968c6040518163ffffffff1660e01b815260040160a060405180830381865afa15801561016e573d5f5f3e3d5ffd5b505050506040513d601f19601f8201168201806040525081019061019291906102ac565b5050509150506402540be400816101a99190610350565b9250505090565b5f819050919050565b6101c2816101b0565b82525050565b5f6020820190506101db5f8301846101b9565b92915050565b5f5ffd5b6101ee816101b0565b81146101f8575f5ffd5b50565b5f81519050610209816101e5565b92915050565b5f60208284031215610224576102236101e1565b5b5f610231848285016101fb565b91505092915050565b5f69ffffffffffffffffffff82169050919050565b6102588161023a565b8114610262575f5ffd5b50565b5f815190506102738161024f565b92915050565b5f819050919050565b61028b81610279565b8114610295575f5ffd5b50565b5f815190506102a681610282565b92915050565b5f5f5f5f5f60a086880312156102c5576102c46101e1565b5b5f6102d288828901610265565b95505060206102e388828901610298565b94505060406102f4888289016101fb565b9350506060610305888289016101fb565b925050608061031688828901610265565b9150509295509295909350565b7f4e487b71000000000000000000000000000000000000000000000000000000005f52601160045260245ffd5b5f61035a82610279565b915061036583610279565b925082820261037381610279565b91507f800000000000000000000000000000000000000000000000000000000000000084145f841216156103aa576103a9610323565b5b82820584148315176103bf576103be610323565b5b509291505056fea2646970667358221220dbc47c112e245a674e85fff402f80056e153ff2d9a5f3c938d5f238abbbee78564736f6c634300081c0033",
			"opcodes": "PUSH2 0x3FC PUSH2 0x4D PUSH1 0xB DUP3 DUP3 DUP3 CODECOPY DUP1 MLOAD PUSH0 BYTE PUSH1 0x73 EQ PUSH1 0x41 JUMPI PUSH32 0x4E487B7100000000000000000000000000000000000000000000000000000000 PUSH0 MSTORE PUSH0 PUSH1 0x4 MSTORE PUSH1 0x24 PUSH0 REVERT JUMPDEST ADDRESS PUSH0 MSTORE PUSH1 0x73 DUP2 MSTORE8 DUP3 DUP2 RETURN INVALID PUSH20 0x0 ADDRESS EQ PUSH1 0x80 PUSH1 0x40 MSTORE PUSH1 0x4 CALLDATASIZE LT PUSH2 0x3F JUMPI PUSH0 CALLDATALOAD PUSH1 0xE0 SHR DUP1 PUSH4 0xD8E6E2C EQ PUSH2 0x43 JUMPI DUP1 PUSH4 0x98D5FDCA EQ PUSH2 0x61 JUMPI JUMPDEST PUSH0 PUSH0 REVERT JUMPDEST PUSH2 0x4B PUSH2 0x7F JUMP JUMPDEST PUSH1 0x40 MLOAD PUSH2 0x58 SWAP2 SWAP1 PUSH2 0x1C8 JUMP JUMPDEST PUSH1 0x40 MLOAD DUP1 SWAP2 SUB SWAP1 RETURN JUMPDEST PUSH2 0x69 PUSH2 0x10B JUMP JUMPDEST PUSH1 0x40 MLOAD PUSH2 0x76 SWAP2 SWAP1 PUSH2 0x1C8 JUMP JUMPDEST PUSH1 0x40 MLOAD DUP1 SWAP2 SUB SWAP1 RETURN JUMPDEST PUSH0 PUSH0 PUSH20 0x694AA1769357215DE4FAC081BF1F309ADC325306 SWAP1 POP DUP1 PUSH20 0xFFFFFFFFFFFFFFFFFFFFFFFFFFFFFFFFFFFFFFFF AND PUSH4 0x54FD4D50 PUSH1 0x40 MLOAD DUP2 PUSH4 0xFFFFFFFF AND PUSH1 0xE0 SHL DUP2 MSTORE PUSH1 0x4 ADD PUSH1 0x20 PUSH1 0x40 MLOAD DUP1 DUP4 SUB DUP2 DUP7 GAS STATICCALL ISZERO DUP1 ISZERO PUSH2 0xE1 JUMPI RETURNDATASIZE PUSH0 PUSH0 RETURNDATACOPY RETURNDATASIZE PUSH0 REVERT JUMPDEST POP POP POP POP PUSH1 0x40 MLOAD RETURNDATASIZE PUSH1 0x1F NOT PUSH1 0x1F DUP3 ADD AND DUP3 ADD DUP1 PUSH1 0x40 MSTORE POP DUP2 ADD SWAP1 PUSH2 0x105 SWAP2 SWAP1 PUSH2 0x20F JUMP JUMPDEST SWAP2 POP POP SWAP1 JUMP JUMPDEST PUSH0 PUSH0 PUSH20 0x694AA1769357215DE4FAC081BF1F309ADC325306 SWAP1 POP PUSH0 DUP2 PUSH20 0xFFFFFFFFFFFFFFFFFFFFFFFFFFFFFFFFFFFFFFFF AND PUSH4 0xFEAF968C PUSH1 0x40 MLOAD DUP2 PUSH4 0xFFFFFFFF AND PUSH1 0xE0 SHL DUP2 MSTORE PUSH1 0x4 ADD PUSH1 0xA0 PUSH1 0x40 MLOAD DUP1 DUP4 SUB DUP2 DUP7 GAS STATICCALL ISZERO DUP1 ISZERO PUSH2 0x16E JUMPI RETURNDATASIZE PUSH0 PUSH0 RETURNDATACOPY RETURNDATASIZE PUSH0 REVERT JUMPDEST POP POP POP POP PUSH1 0x40 MLOAD RETURNDATASIZE PUSH1 0x1F NOT PUSH1 0x1F DUP3 ADD AND DUP3 ADD DUP1 PUSH1 0x40 MSTORE POP DUP2 ADD SWAP1 PUSH2 0x192 SWAP2 SWAP1 PUSH2 0x2AC JUMP JUMPDEST POP POP POP SWAP2 POP POP PUSH5 0x2540BE400 DUP2 PUSH2 0x1A9 SWAP2 SWAP1 PUSH2 0x350 JUMP JUMPDEST SWAP3 POP POP POP SWAP1 JUMP JUMPDEST PUSH0 DUP2 SWAP1 POP SWAP2 SWAP1 POP JUMP JUMPDEST PUSH2 0x1C2 DUP2 PUSH2 0x1B0 JUMP JUMPDEST DUP3 MSTORE POP POP JUMP JUMPDEST PUSH0 PUSH1 0x20 DUP3 ADD SWAP1 POP PUSH2 0x1DB PUSH0 DUP4 ADD DUP5 PUSH2 0x1B9 JUMP JUMPDEST SWAP3 SWAP2 POP POP JUMP JUMPDEST PUSH0 PUSH0 REVERT JUMPDEST PUSH2 0x1EE DUP2 PUSH2 0x1B0 JUMP JUMPDEST DUP2 EQ PUSH2 0x1F8 JUMPI PUSH0 PUSH0 REVERT JUMPDEST POP JUMP JUMPDEST PUSH0 DUP2 MLOAD SWAP1 POP PUSH2 0x209 DUP2 PUSH2 0x1E5 JUMP JUMPDEST SWAP3 SWAP2 POP POP JUMP JUMPDEST PUSH0 PUSH1 0x20 DUP3 DUP5 SUB SLT ISZERO PUSH2 0x224 JUMPI PUSH2 0x223 PUSH2 0x1E1 JUMP JUMPDEST JUMPDEST PUSH0 PUSH2 0x231 DUP5 DUP3 DUP6 ADD PUSH2 0x1FB JUMP JUMPDEST SWAP2 POP POP SWAP3 SWAP2 POP POP JUMP JUMPDEST PUSH0 PUSH10 0xFFFFFFFFFFFFFFFFFFFF DUP3 AND SWAP1 POP SWAP2 SWAP1 POP JUMP JUMPDEST PUSH2 0x258 DUP2 PUSH2 0x23A JUMP JUMPDEST DUP2 EQ PUSH2 0x262 JUMPI PUSH0 PUSH0 REVERT JUMPDEST POP JUMP JUMPDEST PUSH0 DUP2 MLOAD SWAP1 POP PUSH2 0x273 DUP2 PUSH2 0x24F JUMP JUMPDEST SWAP3 SWAP2 POP POP JUMP JUMPDEST PUSH0 DUP2 SWAP1 POP SWAP2 SWAP1 POP JUMP JUMPDEST PUSH2 0x28B DUP2 PUSH2 0x279 JUMP JUMPDEST DUP2 EQ PUSH2 0x295 JUMPI PUSH0 PUSH0 REVERT JUMPDEST POP JUMP JUMPDEST PUSH0 DUP2 MLOAD SWAP1 POP PUSH2 0x2A6 DUP2 PUSH2 0x282 JUMP JUMPDEST SWAP3 SWAP2 POP POP JUMP JUMPDEST PUSH0 PUSH0 PUSH0 PUSH0 PUSH0 PUSH1 0xA0 DUP7 DUP9 SUB SLT ISZERO PUSH2 0x2C5 JUMPI PUSH2 0x2C4 PUSH2 0x1E1 JUMP JUMPDEST JUMPDEST PUSH0 PUSH2 0x2D2 DUP9 DUP3 DUP10 ADD PUSH2 0x265 JUMP JUMPDEST SWAP6 POP POP PUSH1 0x20 PUSH2 0x2E3 DUP9 DUP3 DUP10 ADD PUSH2 0x298 JUMP JUMPDEST SWAP5 POP POP PUSH1 0x40 PUSH2 0x2F4 DUP9 DUP3 DUP10 ADD PUSH2 0x1FB JUMP JUMPDEST SWAP4 POP POP PUSH1 0x60 PUSH2 0x305 DUP9 DUP3 DUP10 ADD PUSH2 0x1FB JUMP JUMPDEST SWAP3 POP POP PUSH1 0x80 PUSH2 0x316 DUP9 DUP3 DUP10 ADD PUSH2 0x265 JUMP JUMPDEST SWAP2 POP POP SWAP3 SWAP6 POP SWAP3 SWAP6 SWAP1 SWAP4 POP JUMP JUMPDEST PUSH32 0x4E487B7100000000000000000000000000000000000000000000000000000000 PUSH0 MSTORE PUSH1 0x11 PUSH1 0x4 MSTORE PUSH1 0x24 PUSH0 REVERT JUMPDEST PUSH0 PUSH2 0x35A DUP3 PUSH2 0x279 JUMP JUMPDEST SWAP2 POP PUSH2 0x365 DUP4 PUSH2 0x279 JUMP JUMPDEST SWAP3 POP DUP3 DUP3 MUL PUSH2 0x373 DUP2 PUSH2 0x279 JUMP JUMPDEST SWAP2 POP PUSH32 0x8000000000000000000000000000000000000000000000000000000000000000 DUP5 EQ PUSH0 DUP5 SLT AND ISZERO PUSH2 0x3AA JUMPI PUSH2 0x3A9 PUSH2 0x323 JUMP JUMPDEST JUMPDEST DUP3 DUP3 SDIV DUP5 EQ DUP4 ISZERO OR PUSH2 0x3BF JUMPI PUSH2 0x3BE PUSH2 0x323 JUMP JUMPDEST JUMPDEST POP SWAP3 SWAP2 POP POP JUMP INVALID LOG2 PUSH5 0x6970667358 0x22 SLT KECCAK256 0xDB 0xC4 PUSH29 0x112E245A674E85FFF402F80056E153FF2D9A5F3C938D5F238ABBBEE785 PUSH5 0x736F6C6343 STOP ADDMOD SHR STOP CALLER "
		},
		"gasEstimates": {
			"creation": {
				"codeDepositCost": "204000",
				"executionCost": "271",
				"totalCost": "204271"
			},
			"external": {
				"getPrice()": "infinite",
				"getVersion()": "infinite"
			},
			"internal": {
				"getConversionRate(uint256)": "infinite"
			}
		},
		"methodIdentifiers": {
			"getPrice()": "98d5fdca",
			"getVersion()": "0d8e6e2c"
		}
	},
	"abi": [
		{
			"inputs": [],
			"name": "getPrice",
			"outputs": [
				{
					"internalType": "uint256",
					"name": "",
					"type": "uint256"
				}
			],
			"stateMutability": "view",
			"type": "function"
		},
		{
			"inputs": [],
			"name": "getVersion",
			"outputs": [
				{
					"internalType": "uint256",
					"name": "",
					"type": "uint256"
				}
			],
			"stateMutability": "view",
			"type": "function"
		}
	]
}